:020000040800F2
:10000000180400204501000861030008A902000847
:100010005D0300088D0100080308000800000000CF
:10002000000000000000000000000000ED040008D7
:100030009101000800000000D5030008D905000860
:100040005F0100085F0100085F0100085F01000810
:100050005F0100085F0100085F0100085F01000800
:100060005F0100085F0100085F0100085F010008F0
:100070005F0100085F0100085F0100085F010008E0
:100080005F0100085F0100085F0100085F010008D0
:100090005F0100085F0100085F0100085F010008C0
:1000A0005F0100085F0100085F0100085F010008B0
:1000B0005F0100085F0100085F0100085F010008A0
:1000C0005F0100085F0100085F0100085F01000890
:1000D0005F0100083D060008410600085F010008B6
:1000E0005F0100085F0100085F0100085F01000870
:1000F0005F0100085F0100085F0100085F01000860
:100100005F0100085F0100085F0100085F0100084F
:100110005F0100085F0100085F0100085F0100083F
:100120005F0100085F0100085F0100085F0100082F
:10013000DFF80CD000F018F800480047030A000868
:10014000180400200648804706480047FEE7FEE7FF
:10015000FEE7FEE7FEE7FEE7FEE7FEE7FEE7FEE777
:10016000DD05000831010008064C074D06E0E06897
:1001700040F0010394E8070098471034AC42F6D3EE
:10018000FFF7DAFF100A0008300A000800BFFEE798
:1001900070472DE9F041024600250026002000238B
:1001A0000024002791F803C00CF00F0591F803C05C
:1001B0000CF0100CBCF1000F03D091F802C04CEA17
:1001C000050591F800C0BCF1000F31D01468002083
:1001D0002BE04FF0010C0CFA00F3B1F800C00CEA70
:1001E00003069E4220D183004FF00F0C0CFA03F758
:1001F000BC4305FA03FC4CEA040491F803C0BCF1CB
:10020000280F06D14FF0010C0CFA00FCC2F814C004
:100210000AE091F803C0BCF1480F05D14FF0010C82
:100220000CFA00FCC2F810C0401C0828D1D314609E
:10023000B1F800C0BCF1FF0F34DD546800202EE09F
:1002400000F1080C4FF0010808FA0CF3B1F800C0F7
:100250000CEA03069E4221D183004FF00F0C0CFAEA
:1002600003F7BC4305FA03FC4CEA040491F803C00D
:10027000BCF1280F05D100F1080C08FA0CF8C2F8FF
:10028000148091F803C0BCF1480F07D100F1080CAD
:100290004FF0010808FA0CF8C2F81080401C08283A
:1002A000CED35460BDE8F08100BFFEE700B587B053
:1002B0000121082000F0A0F80121880400F08CF84A
:1002C0000121084600F098F84FF48060ADF818005E
:1002D00018208DF81B0003208DF81A0006A91D4870
:1002E000FFF757FF4FF40060ADF8180004208DF8B9
:1002F0001B0003208DF81A0006A91648FFF749FFD6
:100300004FF4165002900020ADF80C00ADF80E002E
:10031000ADF810000C20ADF812008001ADF814000B
:1003200002A90D4800F0EAF901210B4800F0A8F9F4
:1003300027208DF8040001208DF8050000208DF89D
:10034000060001208DF8070001A800F00BF807B0A7
:1003500000BD0000000801400048004000BFFEE76B
:100360007047000070B5002100230F22C47804B349
:10037000154C246804F4E064C4F5E064210AC1F17A
:100380000403CA40447804FA03F1847814402143FA
:1003900009010E4C0678A155047804F01F050124CC
:1003A000AC4005786D11AD0005F1E025C5F80041C0
:1003B00009E0047804F01F050124AC40044D0678E0
:1003C000761145F8264070BD0CED00E000E400E039
:1003D00080E100E07047000029B1064AD26902437B
:1003E000044BDA6104E0034AD2698243014BDA61CB
:1003F000704700000010024029B1064A926902438A
:10040000044B9A6104E0034A92698243014B9A616A
:10041000704700000010024030B500210022002487
:1004200000232D4D6D6805F00C0121B1042905D084
:10043000082923D105E0294D056022E0274D0560FC
:100440001FE0254D6D6805F47012234D6D6805F4AD
:100450008034022505EB92421CB9214D55430560BD
:100460000BE01D4D6D6805F400351DB11C4D554365
:10047000056002E0194D5543056002E0174D056027
:1004800000BF00BF144D6D6805F0F0010909154D5E
:100490006B5C0568DD4045600F4D6D6805F4E061FB
:1004A000090A104D6B5C4568DD4085600A4D6D683A
:1004B00005F46051C90A0B4D6B5C4568DD40C560B1
:1004C000054D6D6805F44041890B074D6B5CC568AF
:1004D000B5FBF3F5056130BD0010024000127A0053
:1004E00000093D000000002010000020704710B5FA
:1004F00000F002F810BD00000CB500200190009043
:100500003348006840F480303149086000BF30480B
:10051000006800F4003000900198401C01900098A1
:1005200018B90198B0F5A06FF1D12948006800F41E
:10053000003010B10120009001E0002000900098F0
:10054000012843D12348006840F010002149086089
:100550000846006820F0030008600846006840F084
:10056000020008601A484068194948600846406817
:1005700048600846406840F480604860084640682B
:1005800020F47C1048600846406840F4E810486059
:100590000846006840F08070086000BF0C480068A2
:1005A00000F000700028F9D00948406820F00300EE
:1005B000074948600846406840F00200486000BFB4
:1005C0000348406800F00C000828F9D10CBD000079
:1005D00000100240002002407047000010B5134890
:1005E000006840F001001149086008464068104961
:1005F00008400E494860084600680E4908400B490B
:1006000008600846006820F48020086008464068BA
:1006100020F4FE0048604FF41F008860FFF767FF7A
:100620004FF000600449086010BD00000010024057
:100630000000FFF8FFFFF6FE08ED00E07047000045
:100640007CB510E020210C4800F026F806460B4847
:1006500000F0D2F80446E0B20DF8050069460748FC
:1006600000F0D2F800BF40F22661044800F014F810
:100670000028E7D07CBD0000004800400044004056
:1006800021B1828942F40052828104E082894DF6D0
:10069000FF731A408281704702460020B1F5007F47
:1006A00000D100BF13880B400BB1012000E00020F7
:1006B0007047F0B50346002400260025002040F6D0
:1006C0006A17B94200D100BF1846C1F3421401F0C5
:1006D0001F06012707FA06F5012C01D10C3004E0B2
:1006E000022C01D1103000E014301AB107682F43FA
:1006F000076002E00768AF430760F0BD2DE9F047EF
:1007000086B005460E460024A24600BFA14600273B
:10071000B08900B100BF2F462C8A4CF6FF70044010
:10072000F08804432C82AC894EF6F3100440B08864
:1007300031890843718908430443AC81AC8A4FF680
:10074000FF400440B0890443AC8201A8FFF764FE77
:100750001F48874202D1DDF810A001E0DDF80CA0AF
:10076000A88900F4004040B10AEBCA0000EB0A106F
:1007700031684900B0FBF1F807E00AEBCA0000EB72
:100780000A1031688900B0FBF1F86420B8FBF0F082
:1007900004012009642101FB1089A88900F40040AC
:1007A00040B1322000EBC900B0FBF1F000F00700CF
:1007B000044308E0322000EB09106421B0FBF1F0A3
:1007C00000F00F0004432C8106B0BDE8F087000064
:1007D0000038014070B504460D4600BF2021204678
:1007E000FFF75AFF0128F9D0204600F005F820460F
:1007F00000F002F8054670BD01468888C0F3080085
:10080000704700BFFEE7000070B506460C460EE0DC
:10081000002500BF615D3046FFF7DCFF6D1C605DA9
:100820000028F7D1214605A000F058F800BF20218C
:100830003046FFF731FF0028EAD070BD25730A006B
:1008400000B587B001210420FFF7D6FD0820ADF8E0
:10085000180018208DF81B0003208DF81A0006A937
:100860001C48FFF796FC01214804FFF7B5FD012164
:100870000846FFF7C1FD4FF4165002900020ADF876
:100880000C00ADF80E00ADF810000C20ADF8120011
:100890008001ADF8140002A90F48FFF72FFF0121D6
:1008A0000D48FFF7EDFE26208DF8040001208DF89D
:1008B000050000208DF8060001208DF8070001A832
:1008C000FFF750FD012240F225510348FFF7F1FEEA
:1008D00007B000BD00080140004400400FB4054BC4
:1008E00010B503A9044A029800F017F810BC5DF88F
:1008F00014FB0000F10900081400002002E008C801
:10090000121F08C1002AFAD170477047002001E089
:1009100001C1121F002AFBD170472DE9F84F9946FB
:10092000924688460546002706E025280AD051460B
:100930004A4690476D1C7F1C28780028F5D1384620
:10094000BDE8F88F002315F8011F18462E2915D190
:1009500015F8011F04232A290DD06FF02F022978E2
:10096000A1F13004092C09D800EB800002EB400013
:1009700008446D1CF3E758F8040B6D1C2A78002A14
:10098000DDD0632A07D0732A0FD0104651464A465D
:1009900090477F1C2AE018F8042B8DF800200021D6
:1009A0008DF801106E46012103E058F8046B4FF0FA
:1009B000FF315A074FF0000401D409E0641C84425F
:1009C0000BDA8C42FADB325D002AF7D105E0641CB9
:1009D0008C42FCDB305D0028F9D1274404E016F896
:1009E000010B51464A469047641EF8D26D1CA3E79E
:1009F00038B504468DF8000069460320ABBE20469A
:100A000038BD10B5FFF71CFFFFF750FC002010BDEC
:100A1000300A00080000002018000000FC08000850
:100A2000480A000818000020000400000C09000813
:100A30000000000001020304010203040607080984
:080A400002040608000000009A
:0400000508000145A9
:00000001FF
