:020000040800F2
:100000003804002045010008DF0A0008D70A00086C
:10001000DB0A000809060008710F00080000000054
:10002000000000000000000000000000870C000835
:10003000C908000800000000E10A0008990D000846
:100040005F0100085F0100085F0100085F01000810
:100050005F0100085F0100085F0100085F01000800
:100060005F0100085F0100085F0100085F010008F0
:100070005F0100085F0100085F0100085F010008E0
:100080005F0100085F0100085F0100085F010008D0
:100090005F0100085F0100085F0100085F010008C0
:1000A0005F0100085F0100085F0100085F010008B0
:1000B0005F0100085F0100085F0100085F010008A0
:1000C0005F0100085F0100085F0100085F01000890
:1000D0005F010008FD0D0008FF0D0008010E00087B
:1000E0005F0100085F0100085F0100085F01000870
:1000F0005F0100085F0100085F0100085F01000860
:100100005F0100085F0100085F0100085F0100084F
:100110005F0100085F0100085F0100085F0100083F
:100120005F0100085F0100085F0100085F0100082F
:10013000DFF80CD000F09AF9004800474918000891
:10014000380400200648804706480047FEE7FEE7DF
:10015000FEE7FEE7FEE7FEE7FEE7FEE7FEE7FEE777
:100160009D0D0008310100082DE9FE4F81EA0304CE
:1001700004F0004421F0004100944FF0000B23F004
:10018000004350EA01045ED052EA03045BD0C3F39B
:100190000A54C1F30A552C44A4F2F3340194A0FB91
:1001A0000254C1F3130141F48011C3F3130343F468
:1001B000801301FB024400FB034E840A970A44EAC1
:1001C000815447EA8357A4FB076802958D0A05FB13
:1001D00007854FEA932C04FB0C542705029D4FEA38
:1001E000065847EA1637B5EB08056EEB070C870E85
:1001F000920E47EA811742EA8312A7FB0201B6EB8F
:100200000B0164EB00042B0D43EA0C335E1844EB46
:100210001C50DA465146E7FB0201C5F313044FEACE
:100220000B3343EA14534FEA0432019C43EA0603BA
:10023000A4F10C040294009CCDE900B400F0C8F8CD
:1002400003B0BDE8F08F00200146F9E7C10F80EA56
:10025000E0700844CA079623002100F07CB870B50E
:10026000C1F30A5201F000450024C1F3130140F22A
:10027000FF3341F480119A4201DA002070BD40F250
:1002800033439A42A2F2334203DC524200F04AF86E
:1002900000E090402C43F1D0404270BD00F000429D
:1002A00030F000400AD0C10D01F56071C0F31600B6
:1002B00042EA0151C208400711437047002001463D
:1002C00070472DE9F05F0546002092469B46884620
:1002D0000646814640241BE02846414647462246C2
:1002E00000F020F853465A46C01A914110D31146E7
:1002F0001846224600F0CCF82D1A67EB01084F464D
:1003000022460120002100F0C3F817EB00094E41FE
:10031000201EA4F10104DFDC484631462A4643464C
:10032000BDE8F09F202A04DB203A21FA02F00021E8
:10033000704721FA02F3D040C2F1200291400843F5
:10034000194670470029A8BF7047401C490008BFE4
:1003500020F00100704710B4B0FA80FC00FA0CF0F5
:1003600050EA010404BF10BC704749B1CCF120042D
:1003700021FA04F411FA0CF118BF012121430843BA
:10038000A3EB0C01CB1D4FEA00614FEA102042BFE6
:10039000002010BC704700EBC35010440029A4BFDC
:1003A00010BC7047401C490008BF20F0010010BC81
:1003B000704710B5141E73F1000408DA401C41F1B7
:1003C000000192185B411A4301D120F0010010BDD9
:1003D0002DE9F04D92469B4611B1B1FA81F202E04F
:1003E000B0FA80F22032904600F052F804460F46F0
:1003F00040EA0A0041EA0B0153465A46084313D02B
:10040000114653EA010019D0C8F140025046FFF7E7
:1004100089FF05460E4650465946424600F038F8D8
:10042000084305D0012004E020463946BDE8F08DA0
:100430000020054346EAE0762C4337430A986305DB
:10044000E40AA0EB08000022FD0A44EA47540A30FF
:1004500002D500200146E9E7010510196941DDE9EF
:10046000084500196941BDE8F04DA2E7064C074D6B
:1004700006E0E06840F0010394E807009847103474
:10048000AC42F6D3FFF758FE1C4900083C4900086F
:10049000202A04DB203A00FA02F100207047914044
:1004A000C2F1200320FA03F319439040704721B1B1
:1004B000826842F00102826003E0826822F0010259
:1004C00082607047014600208A6802F004020AB187
:1004D000012000E000207047014600208A6802F0F9
:1004E00008020AB1012000E00020704730B5024642
:1004F0000020002350680F4C20400D790C6844EA1E
:1005000005242043506090680B4C2040D1E90254F0
:100510002C434D7944EA450420439060D06A20F48E
:1005200070000C7C641EE4B2234340EA0350D062A6
:1005300030BD0000FFFEF0FFFDF7F1FFF0B504460F
:100540000D4600200021092D11DDE068A5F10A0605
:1005500006EB4607072606FA07F18843A5F10A06C7
:1005600006EB460603FA06F10843E0600CE020695A
:1005700005EB4507072606FA07F1884305EB450614
:1005800003FA06F108432061072A0FDA606B561E52
:1005900006EB86071F2606FA07F18843561E06EB70
:1005A000860605FA06F10843606322E00D2A0FDA99
:1005B000206BD61F06EB86071F2606FA07F1884335
:1005C000D61F06EB860605FA06F10843206310E005
:1005D000E06AA2F10D0606EB86071F2606FA07F170
:1005E0008843A2F10D0606EB860605FA06F10843DC
:1005F000E062F0BD816841F0080181607047816868
:1006000041F004018160704700BFFEE738B5002467
:100610004FF48060ADF8000048208DF803000320FF
:100620008DF802006946154800F074F904E0601C7A
:10063000C4B2012000F05EF94FF480610F4800F071
:100640003DFA08B1C82CF2DBC82C01DB012038BD13
:10065000002404E0601CC4B2012000F04BF94FF408
:100660008061064800F02AFA08B9F02CF2DBF02C81
:1006700001DB0120EBE70020E9E700000008014072
:100680002DE9F84F00F0D6F800F0B0F8FFF7BEFF04
:10069000CC2000F0DBF8BE2000F0D8F800F094F891
:1006A000834600F091F80446072C08DDE043C4B20D
:1006B0006FEA0B0000F0FF0B4FF0000A01E04FF073
:1006C000010AA1464FEA09200FFA80F909EB0B0055
:1006D0000FFA80F94846FFF7B9FD0090FFF7DEFDFD
:1006E00007460022084BFFF73FFD0546FFF7B7FD21
:1006F0000FFA80F9BAF1000F02D04846BDE8F88F32
:10070000C9F1000000B2F9E70000E43F08B501219B
:10071000080200F003FA4FF48060ADF800001020EA
:100720008DF8030003208DF802006946064800F0AA
:10073000F1F84FF48061044800F0CBF900F056F86E
:10074000FFF764FF08BD00000020014038B54FF4FA
:100750008060ADF8000010208DF8030003208DF8B4
:1007600002006946174800F0D5F84FF4806115483B
:1007700000F0ADF9022000F0BDF84FF4806111489F
:1007800000F0A7F94FF48060ADF8000048208DF824
:10079000030003208DF8020069460A4800F0BAF809
:1007A0000C2000F0A7F84FF48061064800F086F9AD
:1007B00008B1012400E00024322000F09BF820461C
:1007C00038BD00000008014070B50026012508E092
:1007D000FFF7BCFF0446E00140EA6600C6B2681CB1
:1007E000C5B2082DF4DD304670BD000008B54FF4E9
:1007F0008060ADF8000010208DF8030003208DF814
:10080000020069460A4800F085F84FF48061084804
:1008100000F05DF940F2EE2000F06CF84FF48061DA
:10082000034800F056F90F2000F064F808BD0000FE
:100830000008014010B5FFF7D9FFFFF7E7FECC2015
:1008400000F004F8442000F001F810BDF8B50446AB
:100850004FF48060ADF8000010208DF803000320F5
:100860008DF802006946174800F054F8012526E08B
:1008700004F00106641086B14FF48061114800F065
:1008800026F9022000F036F84FF480610D4800F0A0
:1008900020F93C2000F02EF80FE04FF48061094869
:1008A00000F015F93C2000F025F84FF48061054870
:1008B00000F00FF9022000F01DF8681CC5B2082DE9
:1008C000D6DDF8BD00080140704742F228314FF0F4
:1008D000E02251610021916107E000BF4FF0E0216B
:1008E000096901F480310029F8D0011EA0F101004E
:1008F000F3D1704700EBC0014FF0E02251610021BD
:10090000916100BF4FF0E021096901F480310029B5
:10091000F8D070472DE9F04102460025002600205E
:1009200000230024002791F803C00CF00F0591F874
:1009300003C00CF0100CBCF1000F03D091F802C002
:100940004CEA050591F800C0BCF1000F31D01468E5
:1009500000202BE04FF0010C0CFA00F3B1F800C0BE
:100960000CEA03069E4220D183004FF00F0C0CFAD4
:1009700003F7BC4305FA03FC4CEA040491F803C0F6
:10098000BCF1280F06D14FF0010C0CFA00FCC2F8A4
:1009900014C00AE091F803C0BCF1480F05D14FF034
:1009A000010C0CFA00FCC2F810C0401C0828D1D37E
:1009B0001460B1F800C0BCF1FF0F34DD54680020B2
:1009C0002EE000F1080C4FF0010808FA0CF3B1F822
:1009D00000C00CEA03069E4221D183004FF00F0CA9
:1009E0000CFA03F7BC4305FA03FC4CEA040491F843
:1009F00003C0BCF1280F05D100F1080C08FA0CF86F
:100A0000C2F8148091F803C0BCF1480F07D100F17F
:100A1000080C4FF0010808FA0CF8C2F81080401CCE
:100A20000828CED35460BDE8F0810000F0B50A4636
:100A3000002300240021002500F00046B6F1004FFD
:100A400002D11D4EF16901E01B4E7168C0F30345F0
:100A500083B200F44016B6F5401F08D121F0706152
:100A6000154E766826F07066134F7E6012E000F433
:100A70008016B6F5801F06D1032606FA05F4A143B9
:100A800041F0706106E0460D360103FA06F6B14307
:100A900041F0706122B1460D360103FA06F631438A
:100AA00000F00046B6F1004F02D1034EF16101E0C3
:100AB000014E7160F0BD00000000014002460020C0
:100AC00093680B400BB1012000E0002070474161AA
:100AD00070470161704700BFFEE700BFFEE7704747
:100AE0007047000001460020034A506820F440404F
:100AF00008435060704700000010024029B1064AC8
:100B0000D2690243044BDA6104E0034AD2698243AA
:100B1000014BDA61704700000010024029B1064A1B
:100B200092690243044B9A6104E0034A926982434A
:100B3000014B9A61704700000010024030B500215F
:100B40000022002400232D4D6D6805F00C0121B119
:100B5000042905D0082923D105E0294D056022E0AC
:100B6000274D05601FE0254D6D6805F47012234D7B
:100B70006D6805F48034022505EB92421CB9214DC5
:100B8000554305600BE01D4D6D6805F400351DB142
:100B90001C4D5543056002E0194D5543056002E0C8
:100BA000174D056000BF00BF144D6D6805F0F001E2
:100BB0000909154D6B5C0568DD4045600F4D6D689A
:100BC00005F4E061090A104D6B5C4568DD40856005
:100BD0000A4D6D6805F46051C90A0B4D6B5C4568A0
:100BE000DD40C560054D6D6805F44041890B074D3A
:100BF0006B5CC568B5FBF3F5056130BD00100240C4
:100C000000127A0000093D001A0000202A0000208E
:100C100021B1028842F04002028004E002884FF6CF
:100C2000BF731A4002807047CA4302817047024670
:100C3000002013890B400BB1012000E00020704719
:100C40000146888970478181704710B5002202886B
:100C500002F441520B884C8823438C882343CC8870
:100C600023430C8923434C8923438C892343CC8918
:100C700023431A430280838B4FF2FF742340838304
:100C80000B8A038210BD704710B500F001F810BD4B
:100C90000CB50020019000903348006840F480308B
:100CA0003149086000BF3048006800F4003000900F
:100CB0000198401C0190009818B90198B0F5A06FF8
:100CC000F1D12948006800F4003010B101200090F3
:100CD00001E0002000900098012843D123480068DB
:100CE00040F01000214908600846006820F0030029
:100CF00008600846006840F0020008601A48406832
:100D0000194948600846406848600846406840F411
:100D1000806048600846406820F47C1048600846BF
:100D2000406840F4E81048600846006840F0807071
:100D3000086000BF0C48006800F000700028F9D07F
:100D40000948406820F003000749486008464068A9
:100D500040F00200486000BF0348406800F00C000B
:100D60000828F9D10CBD000000100240002002400C
:100D7000042808D14FF0E021096941F004014FF047
:100D8000E022116107E04FF0E021096921F0040140
:100D90004FF0E022116170477047000010B5134812
:100DA000006840F001001149086008464068104999
:100DB00008400E494860084600680E4908400B4943
:100DC00008600846006820F48020086008464068F3
:100DD00020F4FE0048604FF41F008860FFF754FFC6
:100DE0004FF000600449086010BD00000010024090
:100DF0000000FFF8FFFFF6FE08ED00E070477047C7
:100E0000704701F40072B2F5007F00D100BFCA4301
:100E10000280704721B1828942F40052828104E04D
:100E200082894DF6FF731A40828170470246002086
:100E3000B1F5007F00D100BF13880B400BB101203A
:100E400000E000207047F0B503460024002600258E
:100E5000002040F66A17B94200D100BF1846C1F31E
:100E6000421401F01F06012707FA06F5012C01D1F3
:100E70000C3004E0022C01D1103000E014301AB123
:100E800007682F43076002E00768AF430760F0BDC3
:100E90002DE9F04786B005460E460024A24600BF65
:100EA000A1460027B08900B100BF2F462C8A4CF61E
:100EB000FF700440F08804432C82AC894EF6F31096
:100EC0000440B08831890843718908430443AC81E8
:100ED000AC8A4FF6FF400440B0890443AC8201A8BD
:100EE000FFF72CFE1F48874202D1DDF810A001E079
:100EF000DDF80CA0A88900F4004040B10AEBCA005C
:100F000000EB0A1031684900B0FBF1F807E00AEB8A
:100F1000CA0000EB0A1031688900B0FBF1F86420C8
:100F2000B8FBF0F004012009642101FB1089A889B5
:100F300000F4004040B1322000EBC900B0FBF1F0FA
:100F400000F00700044308E0322000EB09106421A0
:100F5000B0FBF1F000F00F0004432C8106B0BDE8B7
:100F6000F087000000380140C1F30802828070471A
:100F700000BFFEE70FB4054B10B503A9044A029861
:100F800000F018F810BC5DF814FB000051140008C4
:100F90003000002002E008C8121F08C1002AFAD160
:100FA00070477047002001E001C1121F002AFBD1E9
:100FB000704700002DE9FF4F8DB00F460546002613
:100FC00006E025280BD0DDE90F1290476D1C761C3A
:100FD00028780028F5D111B03046BDE8F08F002404
:100FE000A246A1460122EC4900E0044315F8013F66
:100FF000203B02FA03F00842F7D128782A2810D0C3
:101000006FF02F022878A0F13001092914D80AEBDB
:101010008A0102EB410144F0020400EB010A6D1C5D
:10102000F0E701CF5FEA000A03D544F40054CAF1A7
:10103000000A44F002046D1C28782E2817D115F8F8
:10104000010F44F004042A280ED06FF02F022878F4
:10105000A0F1300109290AD809EB890102EB41010D
:1010600000EB01096D1CF2E757F8049B6D1C287812
:101070006C280FD006DC4C2817D068280DD06A28C1
:1010800014D104E0742810D07A280FD10DE044F474
:1010900000140AE044F4801401E044F44014697838
:1010A000814202D104F580146D1C6D1C2A786E2AD1
:1010B0001FD00CDC632A31D004DC002A8BD0582AE4
:1010C00011D1A3E0642A68D0692A0CD165E0732AA3
:1010D0002ED004DC6F2A73D0702A04D19BE0752ACD
:1010E0006FD0782A6ED01046DDE90F129047761C3B
:1010F00050E1C4F30250022806D0032809D0042886
:1011000001CF09D0066045E101CFF117C0E90061C8
:1011100040E101CF06803DE106703BE117F8040B8A
:101120008DF8000000208DF80100EB46012003E05F
:1011300057F804BB4FF0FF3061074FF0000102D4B5
:101140000DE008F10101884649450FDA8045F8DBDA
:101150001BF808100029F4D108E008F101018846C5
:101160008142FADB1BF808100029F6D1DDE90F23D4
:10117000AAEB08008146214600F036F9304400EB26
:10118000080604E0DDE90F121BF8010B9047B8F1E7
:101190000108F7D221464846F7E00A21C4F302537A
:1011A0004FF0000B0891022B04D001CFC117032B85
:1011B00009D00AE0FF1D27F00707F7E8020108E061
:1011C00032E01FE020E000B2C117042B01D140B291
:1011D000C117031E71F1000307DA4FF0000CD0EBCA
:1011E0000C006CEB01012D2302E0230504D52B2319
:1011F0008DF82430012303E0E30701D02023F7E733
:10120000984658E00A2110E010210EE010204FF01F
:10121000000B08900CE010214FF0000B44F0040488
:101220004FF00809089103E008214FF0000B0891E6
:10123000C4F30253022B04D001CF0021032B06D0AC
:1012400006E0FF1D27F00707F7E8020103E080B280
:10125000042B00D1C0B24FF0000823072BD5702A11
:1012600007D0DDF820C08CF0100C5CEA0B0C05D028
:101270000EE040238DF82430012308E050EA0103FA
:1012800006D030238DF824308DF82520022398468F
:10129000DDF820C08CF0080C5CEA0B0C0BD150EA96
:1012A000010301D1630706D530238DF824304FF0B8
:1012B0000108A9F10109582A04D038A20B9208AA02
:1012C0000A920BE03AA2F9E75B46089AFEF7F9FFAB
:1012D0000B9B9B5C0A9A521E0A92137050EA010201
:1012E000F2D10A98ADEB000000F1200B600702D5A7
:1012F00024F4803401E04FF00109D94502DDA9EB67
:101300000B0000E0002000EB0B0141440890AAEB29
:10131000010AE00306D4DDE90F232146504600F020
:1013200063F806444FF0000908E009A911F8090024
:10133000DDE90F12904709F10109761CC145F4DB84
:10134000E0030CD5DDE90F232146504600F04CF8B0
:10135000064404E0DDE90F1230209047761C08991E
:10136000481E08900029F5DC08E00A980A990078E0
:10137000491C0A91DDE90F129047761CBBF1000170
:10138000ABF1010BF1DC21465046DDE90F2300F003
:1013900019F806446D1C1BE6092801003031323370
:1013A00034353637383961626364656600000000A1
:1013B000303132333435363738394142434445468B
:1013C000000000002DE9F041044600251E461746A6
:1013D000880404D405E039462020B0476D1C641E03
:1013E000F9D52846BDE8F0812DE9F04104460025F5
:1013F0001E469046C80301D5302700E02027880408
:1014000004D505E041463846B0476D1C641EF9D549
:101410002846BDE8F08170B50646002415E004F1C9
:10142000B001C8B200F012FE002000F00FFE102044
:1014300000F00CFE002504E0304600F01DFE681CA4
:10144000C5B2802DF8DB601CC4B2082CE7DB70BD90
:1014500070B504460D46E1B20748FFF785FD00BFB1
:1014600040210548FFF7E2FC0028F9D0402102485E
:10147000FFF7C7FC204670BD0038014000B587B0BB
:10148000012140F20D20FFF749FB01212648FFF71B
:10149000CDFA4FF44040FFF725FB0220ADF81800CD
:1014A00000208DF81B0006A92048FFF733FA4FF4FF
:1014B0000040ADF8180006A91D48FFF72BFA4FF4BD
:1014C00000411B48FFF703FB002001908DF8080046
:1014D0008DF809004FF46020039000200490012053
:1014E0008DF8140001A91348FFF700F801211148F5
:1014F000FEF7DDFF0723012209210E48FFF71EF842
:101500000C48FFF777F800BF0A48FEF7E5FF002810
:10151000FAD10848FFF773F800BF0648FEF7D2FF7C
:101520000028FAD107B000BD00023000000C0140D5
:10153000000801400024014008B501210820FFF700
:10154000EDFA4FF48060ADF8000014208DF8030030
:1015500003208DF8020069460C48FFF7DBF94FF4D1
:1015600080610A48FFF7B5FA01210820FFF7D6FA93
:101570004FF40060ADF8000069460448FFF7CAF96F
:101580004FF400610148FFF7A4FA08BD000C0140C8
:1015900008B501210820FFF7C1FA2020ADF80000AE
:1015A00010208DF8030003208DF8020069460448DE
:1015B000FFF7B0F920210248FFF789FA08BD0000C3
:1015C000000C014010B5812000F040FDFF2000F02C
:1015D0003DFDA12000F03AFDC82000F037FD8D2030
:1015E00000F034FD142000F031FDAF2000F02EFD9E
:1015F00010BD000010B586B00446334884420CD0BC
:101600003248844208D101210C20FFF787FA0121DA
:101610008803FFF773FA00E000BF2B4884422DD007
:101620002A48844229D18015ADF8140010208DF885
:10163000170003208DF8160005A92548FFF76AF961
:10164000A1152348FFF745FA4FF42040ADF81400E8
:1016500018208DF8170003208DF8160005A91D48E5
:10166000FFF758F92014ADF8140004208DF8170086
:1016700005A91848FFF74EF900E000BF0020ADF8BB
:1016800000004FF48270ADF802000020ADF80400B5
:10169000ADF80600ADF808004FF40070ADF80A0090
:1016A0003820ADF80C000020ADF80E000720ADF892
:1016B000100069462046FFF7C8FA01212046FFF7CF
:1016C000A7FA06B010BD000000300140003800400D
:1016D00000080140000C014008B501210820FFF777
:1016E0001DFA4FF48050ADF8000010208DF8030073
:1016F00003208DF8020069462148FFF70BF94FF4EB
:1017000080511F48FFF7E5F900F082F9002000F052
:1017100092FA802000F062FA012000F08CFA002199
:10172000402000F0BFFC0021412000F0BBFC00F095
:10173000A7FA1448007800F0B7FA1348007800F0D0
:10174000D9FA1248007800F02AFA012000F081FA54
:101750000F48007800F014FA002000F030FAFF2063
:1017600000F087FA40F2FF3000F0D6FA012000F0D6
:1017700043FAFF21122000F095FC00F0A3FA08BD07
:10178000000C01400600002003000020040000209F
:101790000500002010B56FF00400FFF7E9FA4FF0E4
:1017A000E020006940F002004FF0E02108610846A7
:1017B000006940F0010008610920486110BD000087
:1017C00000B585B0012144F20400FFF7A7F94FF4FA
:1017D0000070ADF8100018208DF8130003208DF86C
:1017E000120004A91648FFF795F84FF48060ADF891
:1017F000100004208DF8130004A91148FFF78AF89F
:101800004FF4165000900020ADF80400ADF806002B
:10181000ADF80800ADF80C000C20ADF80A006946E0
:101820000848FFF735FB01210648FFF7F3FA0122CC
:1018300040F225510348FFF706FB05B000BD00004C
:10184000000801400038014088B0002540A30FCBBC
:10185000CDE90623CDE9040141A103C9CDE9020187
:10186000FFF798FFFFF70AFEFFF7AAFFFFF790FECA
:10187000FFF762FEFFF7A6FE3B48FFF7BBFEFFF750
:101880002BFF0020FFF7C7FD00BF09E0042008235D
:101890002A4600210090084600F0B4FAA81CC5B200
:1018A000802DF3DD0020FFF7B6FD08232FA20021D5
:1018B0000F2000F0F5FA4AE0FEF728FF08BBFEF71C
:1018C000DFFE84B221462DA0FFF754FB0A2094FBD3
:1018D000F0F100FB1140303000F0FF080A2094FBCB
:1018E000F0F00A2190FBF1F201FB12003030C7B298
:1018F000642094FBF0F03030C6B24FF4FA70FEF77B
:10190000E4FF8DF81B608DF81C708DF81E808DF83B
:1019100008608DF809708DF80B80102104A800F084
:101920001FFB082318A20321002000F0B9FA0823A6
:1019300002AA0321502000F0B3FA04A914A0FFF773
:1019400019FB00F003FB4FF47A70FEF7BEFFB3E71C
:1019500049443A2030302020543A2030302E300094
:1019600030302E30000000000038004044657669B9
:1019700063652049443A20303000000054656D70A2
:1019800065723A25640D0A0054656D7065723A00FF
:101990004461746153656E646564206973202573C6
:1019A0000A00000010B5044600BF02212046FFF7E0
:1019B0003EF90028F9D002212046FFF735F9312100
:1019C0002046FFF740F900BF01212046FFF72FF91D
:1019D0000028F9D001212046FFF726F92046FFF71D
:1019E0002FF910BD70B50446002000F075F804F022
:1019F0007F01064800F04EF80448FFF7D3FFC5B258
:101A0000012000F069F8284670BD00000038004051
:101A100010B54FF480510748FFF759F80A20FEF738
:101A200054FF4FF480510348FFF753F80A20FEF7A4
:101A30004CFF10BD000C014070B5044600F084F866
:101A4000002521E004F0800028B14FF480611048A7
:101A5000FFF73FF804E04FF480610D48FFF737F8D7
:101A60006006040E4FF400610948FFF732F80120C8
:101A7000FEF740FF4FF400610548FFF728F801200A
:101A8000FEF738FF681CC5B2082DDBDB70BD000017
:101A9000000C014070B504460D4600BF02212046EF
:101AA000FFF7C5F80028F9D002212046FFF7BCF85F
:101AB00029462046FFF7C7F800BF01212046FFF75F
:101AC000B6F80028F9D001212046FFF7ADF82046EE
:101AD000FFF7B6F870BD000010B504462CB14FF406
:101AE00080710548FEF7F5FF04E04FF4807102486D
:101AF000FEF7EDFF10BD00000008014070B5044680
:101B00000D4605F1B001C8B200F0A0FA102141EA7B
:101B1000141000F09BFA04F00F0000F097FA70BD6B
:101B200008B501210820FEF7F9FF4FF48060ADF8F9
:101B3000000048208DF8030069460248FEF7EAFEDF
:101B400008BD0000000C014008B501210820FEF787
:101B5000E5FF4FF48060ADF8000014208DF803001D
:101B600003208DF8020069460448FEF7D3FE4FF4C7
:101B700080610248FEF7ADFF08BD0000000C014087
:101B800070B504461D20FFF72DFF0546284664F377
:101B90001F10C5B229461D2000F084FA70BD70B533
:101BA00004461D20FFF71EFF054605F0F10040EA40
:101BB0004400C5B229461D2000F074FA70BD70B50E
:101BC00004461D20FFF70EFF054605F0FE0040EA23
:101BD000040529461D2000F065FA70BD70B5054664
:101BE0000120FFF7FFFE044604F07F042C4321464A
:101BF000012000F057FA70BD70B504462620FFF7AB
:101C0000F1FE054605F0F70040EAC400C5B22946DA
:101C1000262000F047FA70BD70B504463120FFF76A
:101C2000E1FE054605F0F80040EA040529463120AA
:101C300000F038FA70BD70B505460120FFF7D2FEFE
:101C4000044604F0F8042C432146012000F02AFA4F
:101C500070BD70B504461E20FFF7C4FE054605F0B2
:101C6000FB0040EA8400C5B229461E2000F01AFAA3
:101C700070BD10B504462146222000F013FA10BDB5
:101C800010B508480178062000F00CFA05484178A4
:101C9000072000F007FA03488178082000F002FAD4
:101CA00010BD00000000002010B5044687214D2023
:101CB00000F0F8F90248015D092000F0F3F910BDC9
:101CC0000700002010B50120FFF7B5FF9F2111206C
:101CD00000F0E8F9FF21242000F0E4F90021402081
:101CE00000F0E0F90021412000F0DCF90520FFF7C9
:101CF000A2FF10BD70B504460320FFF78DFF1E2024
:101D0000FFF770FE0546284664F31F10C5B229464A
:101D10001E2000F0C7F970BD38B504461E20FFF73D
:101D200061FE8DF800001F20FFF75CFE8DF80100BA
:101D30009DF8000000F0FC00032101EA1421084393
:101D4000C0B28DF80000E0B28DF801009DF80010DF
:101D50001E2000F0A7F99DF801101F2000F0A2F945
:101D600038BD00002DE9F04780460D4691461E46DD
:101D7000A9F12000C7B2B8F17F0F01DC072D02DD09
:101D80004FF000080025082E21D129464046FFF7D4
:101D9000B5FE002407E0194901EB0711085D00F0CA
:101DA0006BF9601CC4B2082CF5DB681CC1B240465C
:101DB000FFF7A4FE082407E0104901EB0711085DB6
:101DC00000F05AF9601CC4B2102CF5DB13E0062EAB
:101DD00011D129464046FFF791FE002409E007EBA8
:101DE0004701074A02EB4101085D00F045F9601C1C
:101DF000C4B2062CF3DBBDE8F08700000A2300081C
:101E0000D02000082DE9F04706460F469046994637
:101E1000DDF820A0002535E039467A1CD7B23046DF
:101E2000FFF76CFE06EBC51084B225E0BAF1050F92
:101E30001ED2DFE80AF0030D081217001349085DEF
:101E400000F01AF915E01249085D00F015F910E0EC
:101E50001049085D00F010F90BE00F49085D00F033
:101E60000BF906E00D4911F8240000F005F900E037
:101E700000BF00BF601C84B208EBC510A042D5DCD7
:101E8000681C85B24D45C7DBBDE8F0877A2900089C
:101E90007A3100087A2D00087A3500087C3900086C
:101EA0002DE9F04105460F4614461E4608E014F899
:101EB000012B334639462846FFF754FFA819C5B20F
:101EC00020780028F3D1BDE8F081000010B5FFF7BD
:101ED0003BFE4FF400610C48FEF7FBFD4FF48061C0
:101EE0000948FEF7F6FD0120FEF704FD4FF480617E
:101EF0000548FEF7ECFD0120FEF7FCFC4FF4006105
:101F00000148FEF7E4FD10BD000C014010B5FFF7DD
:101F10001BFE4FF480610C48FEF7D9FD4FF40061C1
:101F20000948FEF7D6FD0120FEF7E4FC4FF480617E
:101F30000548FEF7CEFD0120FEF7DCFC4FF4006102
:101F40000148FEF7C4FD10BD000C014003480068C5
:101F500080F0200001490860704700000C0C01402F
:101F600070B504460D460120FFF765FE00212420D0
:101F700000F098F8F721112000F094F8294622206B
:101F800000F090F800210E2000F08CF800210D20C8
:101F900000F088F80020FFF79FFD80211548FFF72B
:101FA00079FD002606E021781248FFF773FD641CD6
:101FB000701CC6B2AE42F6DB0120FFF78DFD40215A
:101FC000084600F06FF80021412000F06BF8032074
:101FD000FFF731FE02E01420FEF777FC1220FFF736
:101FE00001FD00F008000828F5D1FF21122000F0C3
:101FF00059F870BD0038004010B50024FFF790FD7F
:102000004FF400611048FEF764FD0EE0601CC0B2A2
:102010000446322806DD4FF400610B48FEF757FDF9
:10202000002010BD0120FEF765FC4FF480610648DA
:10203000FEF744FD0028E9D14FF400610248FEF7A5
:1020400046FD0120EDE70000000C014010B50446FC
:10205000FFF73CFF7820FFF7EFFCFFF7CDFF0020F4
:10206000FFF7EAFCFFF7C8FF2046FFF7E5FCFFF7A4
:10207000C3FFFFF74BFF10BD10B50446FFF726FF67
:102080007820FFF7D9FCFFF7B7FF4020FFF7D4FC1B
:10209000FFF7B2FF2046FFF7CFFCFFF7ADFFFFF7DA
:1020A00035FF10BD70B504460D460020FFF714FD46
:1020B00044F080010548FFF7EDFC29460348FFF78F
:1020C000E9FC0120FFF708FD70BD0000003800406A
:1020D00000000000000000004C400000000202026E
:1020E0000000207C28283E20006C4A7424000C52FA
:1020F0003C7C5270304C7A6C504000020000000072
:102100000000007C820000423C00000000183810F3
:10211000180000001018100000C00000000008089F
:1021200008080808004000000000004030080600D1
:10213000007C42427C000000447C0000006462524B
:102140004C000064424A7C000010287C2000006C97
:102150004C4C7000007C4A4A74000004641C04006B
:10216000007C4A527C00005C52523C00000048480F
:1021700000000000C80000000018282442000018D9
:1021800018181800004224281800000462520C009D
:1021900018647A566C1840301C1C7000007C545433
:1021A0005C20186442424224007C44442418007C91
:1021B00054544400007C14141C043844424264000B
:1021C000007C10107C0000007C440000808080FCBB
:1021D0000400007C08344000007C40404000704C0B
:1021E00070107C00007C08103C00186442424438A7
:1021F000007C14140C0438446242C438007C14146B
:102200006C00004C4A52740004047C040404007CFA
:1022100040407C00000C30300C00003C143C1C049E
:102220000044283844000004780804000064544C3A
:1022300044000000FE82800000060830400000805C
:1022400082FE00000001010101008080808080800A
:10225000000101000000006058587040007E4848AE
:102260007000007048484000007048487E40007090
:102270006868500000087C0C0C0000F0E8E8D80802
:10228000007E080870000008784000000080808808
:102290007A00007E1038480000007E400000784838
:1022A000487048700878080870000070484870004E
:1022B00008F84848700000704848F0000848700866
:1022C000080000505868680000087C4848000878FA
:1022D000404078400818202018000838283838086E
:1022E0000048383848000098A0601808004868582E
:1022F00048000000007E8000000000FF0000008019
:102300007E00000000010102020000000000000049
:1023100000000000000000000000000000F80000C5
:102320000000000000330000000000100C02100C40
:10233000020000000000000000000040C07840C023
:10234000780000043F04043F040000708888FC0803
:10235000300000182020FF211E00F008F0806018D7
:10236000000000310C031E211E0000F008887000E0
:1023700000001E21232C1927211000120E0000003E
:1023800000000000000000000000000000E0180451
:102390000200000000071820400000020418E000BE
:1023A00000000040201807000000404080F08040FE
:1023B00040000202010F0102020000000000E000E4
:1023C0000000000101010F010101000000000000F8
:1023D00000000090700000000000000000000000FD
:1023E00000000001010101010100000000000000E7
:1023F0000000003030000000000000000000C03885
:102400000400006018070000000000E01008081039
:10241000E000000F102020100F0000001010F80046
:102420000000000020203F2020000070080808085D
:10243000F0000030282422213000003008080888ED
:1024400070000018202121221C000000804030F87C
:10245000000000060524243F242400F8888888080A
:1024600008000019202020110E0000E0108888903C
:102470000000000F112020201F00001808088868A5
:1024800018000000003E0100000000708808088865
:102490007000001C222121221C0000F008080810F6
:1024A000E0000001122222110F00000000C0C00055
:1024B000000000000030300000000000008000003C
:1024C0000000000000E0000000000000804020103C
:1024D0000800000102040810200000404040404075
:1024E00040000002020202020200000810204080A8
:1024F000000000201008040201000070480808884D
:1025000070000000003037000000C030C828E8101C
:10251000E000071827282F2817000000C038E00027
:102520000000203C23020227382008F888888870A1
:102530000000203F202020110E00C03008080808AD
:102540003800071820202010080008F80808081094
:10255000E000203F202020100F0008F88888E808BD
:102560001000203F20202320180008F88888E80861
:102570001000203F200003000000C0300808083889
:10258000000007182020221E020008F8080000089A
:10259000F808203F210101213F20000808F8080821
:1025A00000000020203F2020000000000808F8085C
:1025B0000800C08080807F00000008F888C02818CC
:1025C0000800203F20012638200008F808000000FD
:1025D0000000203F20202020300008F8F800F8F804
:1025E0000800203F013E013F200008F830C00008ED
:1025F000F808203F200007183F00E01008080810E6
:10260000E0000F10202020100F0008F8080808082C
:10261000F000203F210101010000E010080808102F
:10262000E0000F10282830504F0008F8888888886C
:102630007000203F2000030C30200070880808083C
:1026400038000038202121221C00180808F808084A
:1026500018000000203F2000000008F808000008D3
:10266000F808001F202020201F000878880000C8DC
:102670003808000007380E01000008F800F800F8DC
:10268000080000033E013E030000081868808068CF
:10269000180820302C03032C30200838C800C83814
:1026A00008000000203F2000000010080808C8387B
:1026B00008002038262120201800000000FE020219
:1026C00002000000007F40404000000438C00000CD
:1026D0000000000000010638C00000020202FE00F7
:1026E0000000004040407F0000000000040202049F
:1026F00000000000000000000000000000000000DA
:1027000000008080808080808080000202040000C1
:102710000000000000000000000000008080800039
:10272000000000192424123F200010F000808000D7
:102730000000003F112020110E000000008080806A
:102740000000000E112020201100000080808090E9
:10275000F000001F202020103F200000808080809B
:102760000000001F242424241700008080E09090A3
:1027700020000020203F202000000000808080807A
:102780008000006B94949493600010F0008080802F
:102790000000203F210000203F200080989800008A
:1027A00000000020203F20200000000000809898BA
:1027B000000000C08080807F000010F0000080805A
:1027C0008000203F240629302000001010F800006F
:1027D00000000020203F202000008080808080803A
:1027E0008000203F20003F20003F808000808080CC
:1027F0000000203F210000203F20000080808080DA
:102800000000001F202020201F008080008080000A
:10281000000080FF912020110E0000000080800049
:102820008000000E11202091FF8080808000808039
:10283000800020203F212000010000008080808057
:1028400080000033242424241900008080E080804C
:1028500000000000001F2020100080800000008089
:102860008000001F202020103F208080800080807A
:10287000800000030C300C0300008080008080008A
:102880008080010E300C07380601008080800080B7
:1028900080000020310E2E312000808080000080DA
:1028A000808000818678180601000080808080800A
:1028B00080000021302C222130000000000000FCAC
:1028C000020200000000013E404000000000FF0046
:1028D000000000000000FF0000000202FC000000F9
:1028E000000040403E01000000000002010202041E
:1028F000020000000000000000000000FE021222A2
:10290000C202C23202FE0000000080601F002010E0
:102910000C030C30000F3040F8001010F01F10F0C6
:102920000404FF242424FF04040040221508166137
:102930004424150DFF0D152444000000F8888888F4
:1029400088FF88888888F800000000001F080808B1
:10295000087F888888889F80F000808282828282B7
:1029600082E2A2928A8682808000000000000040FD
:10297000807F000000000000000000000000000058
:1029800000000000000000000000000000808080C7
:1029900080000000000000000000000000000000B7
:1029A0000000000000000000000000000000000027
:1029B0000000000000000000000000000000000017
:1029C0000000000000000000000000000000000007
:1029D00000000000000000000000000000000000F7
:1029E00000000000000000000000000000000000E7
:1029F00000000000000000000000000000C0C0E077
:102A0000E060606060E0E0C0C0800000070F0F0F72
:102A10000F070000000000000000000000000000A0
:102A200000000000000000000000000000000000A6
:102A30000000000000000000000000000000000096
:102A40000000000000000000000000000000000086
:102A50000000000000000000000000000000000076
:102A60000000000000000000000000000000000066
:102A700000000000000000000000F8FEFF07010059
:102A800000C0C0400000000103DFFFFC00000000A8
:102A90000000000000F0F0F0F0F0F0F0F0F0F0F0E6
:102AA000F0F0F0F0F0F0F0F0E0000000000080F056
:102AB000F0F080F0F0F0C0C0F0F0F0C0C0C0C0C0D6
:102AC000F0F0F0C0C0000000008080808080808036
:102AD00080F0F0F0F08080808080808080000000B6
:102AE0000000000000707070707070707070707016
:102AF0007070F0F0F0F0F07000000003070F1CF8A9
:102B0000FE3F33303038381C1E0F07010000000034
:102B10000000000000FFFFFFFF003EFEFEFCC0C003
:102B2000FCFEFE3E00FFFFFFFF000000000003FF71
:102B3000FFFF03FFFFFF0301FFFFFFEDEDEDEDEDF5
:102B4000FFFFFF010100000000FFFFFFFF73737331
:102B500073FFFFFFFF73737373FFFFFFFF0000003E
:102B6000000000C0C0C0C0C0C0C0C0C0C0F8F8FCF9
:102B7000FEDFDFCFC7C3C0C0C0000000000000FF01
:102B8000FFC0000000000000000000000000000086
:102B90000000000080FFFFFFFFE0E0F17F7F3F3F8C
:102BA0007F7FF1E0C0FFFFFFFF8000000000009F7B
:102BB000FFFFFCFFBF078ECEFEFE7EFFFFFFFF7E06
:102BC000FEFEEE8E0E000000001F1F1F1F1C1C1CAF
:102BD0001CFFFFFFFF9C1C1C1C1F1F1FEFE0E000E1
:102BE00000000001010101010101010181FFFFFF5E
:102BF000FF010101010101010100000000000000CE
:102C000007070000000000000000000000000000B6
:102C100000000000070703010001010000000000A0
:102C20000000000101000103070700000000070782
:102C3000030101030707030301000007070707005B
:102C4000000103030300000000000000000000007A
:102C50000001030707070707070707070703030024
:102C60000000000000000000000707070707070337
:102C70000100000000000000000000000000000053
:102C80000000000000000000000000000000000044
:102C90000000000000000000000000000000000034
:102CA0000000000000000000000000000000000024
:102CB0000000000000000000000000000000000014
:102CC0000000000000000000000000000000000004
:102CD00000000000000000000000000000000000F4
:102CE00000000000000000000000000000000000E4
:102CF00000000000000000000000000000000000D4
:102D000000000000000000000000000000000000C3
:102D100000000000000000000000000000000000B3
:102D200000000000000000000000000000000000A3
:102D30000000000000000000000000000000000093
:102D40000000000000000000000000000000000083
:102D50000000000000000000000000000000000073
:102D60000000000000000000000000000000000063
:102D70000000000000000000000000000000000053
:102D80000000000000000000000000000000000043
:102D90000000000000000000000000000000000033
:102DA00000000000000000000080C0E0F0F8F8F82B
:102DB000F0E0C08000000000000000000000000003
:102DC0000000000000000000000000000000000003
:102DD00000000000000000000000000000000000F3
:102DE00000000000000000000000000000000000E3
:102DF00000000000000000000000000000000000D3
:102E000000000000000000000000000000000000C2
:102E100000000000000000000000000000000000B2
:102E20000080C0E0F0F8FC7E3F1F0F0703010001A7
:102E300003070F1F3F7EFCF8F0E0C0800000000099
:102E40000000000000000000000000000000000082
:102E50000000000000000000000000000000000072
:102E60000000000000000000000000000000000062
:102E70000000000000000000000000000000000052
:102E80000000000000000000000000000000000042
:102E900000000000000000000000000000183C3EA0
:102EA0003F3F3F3F3D3DFCFCFCF8000000000000C0
:102EB000000000F8FCFCFC3D3F3F3F3F3F3E3C1024
:102EC0000000000000000000000000000000000002
:102ED00000000000000000000000000000000000F2
:102EE00000000000000000000000000000000000E2
:102EF00000000000000000000000000000000000D2
:102F000000000000000000000000000000000000C1
:102F100000000000000000000000000000000000B1
:102F2000000000000000FFFFFF7F00000000000025
:102F3000000000FFFFFFFF00000000000000000095
:102F40000000000000000000000000000000000081
:102F50000000000000000000000000000000000071
:102F60000000000000000000000000000000000061
:102F70000000000000000000000000000000000051
:102F80000000000000000000000000000000000041
:102F90000000000000000000000000000000000031
:102FA0000000000000000000000000000000000021
:102FB000000000FFFFFFFF00000000000000000015
:102FC000FEFFFFFF00000000000000000000000006
:102FD00000000000000000000000000000000000F1
:102FE00000000000000000000000000000000000E1
:102FF00000000000000000000000000000000000D1
:1030000000000000000000000000000000000000C0
:1030100000000000000000000000000000000000B0
:1030200000000000000000000000183C7CFCFCFCDC
:10303000FCFCBC3F3F3F1F00000000000000000000
:103040001F3F3F3FBCFCFCFCFCFC7C3C180000002C
:103050000000000000000000000000000000000070
:103060000000000000000000000000000000000060
:103070000000000000000000000000000000000050
:103080000000000000000000000000000000000040
:103090000000000000000000000000000000000030
:1030A000000000000000000000000000000001031C
:1030B000070F1F3F7EFCF8F0E0C0800080C0E0F00A
:1030C000F8FC7E3F1F0F0703010000000000000016
:1030D00000000000000000000000000000000000F0
:1030E00000000000000000000000000000000000E0
:1030F00000000000000000000000000000000000D0
:1031000000000000000000000000000000000000BF
:1031100000000000000000000000000000000000AF
:10312000000000000000000000000000000000009F
:103130000000000000000103070F1F1F1F0F0703FF
:10314000010000000000000000000000000000007E
:10315000000000000000000000000000000000006F
:10316000000000000000000000000000000000005F
:10317000000000000000000000000000000000004F
:10318000000000000000000000000000000000003F
:10319000000000000000000000000000000000002F
:1031A000000000000000000000000000000000001F
:1031B000000000000000008080000000000000000F
:1031C00000000000000000000000000000000000FF
:1031D00000000000000000000000000000000000EF
:1031E00000000000000000000000000000000000DF
:1031F00000000000000000000000000000000000CF
:1032000000000000000000000000000000000000BE
:1032100000000000000000000000000000000000AE
:103220000000000000000040E0E0C080000000005E
:10323000008080C0C0C0FFFFFFFFC0C0C080800012
:103240000000000080C0E0E040000000000000003E
:10325000000000000000000000000000000000006E
:10326000000000000000000000000000000000005E
:10327000000000000000000000000000000000004E
:10328000000000000000000000000000000000003E
:10329000000000000000000000000000000000002E
:1032A00000000000000000000081E3FFFF7E3E1FE1
:1032B0008FC7C7E3E3F1F101010101030307070F22
:1032C0001F3E7EFFF7E381000000000000000000C9
:1032D00000000000000000000000000000000000EE
:1032E00000000000000000000000000000000000DE
:1032F00000000000000000000000000000000000CE
:1033000000000000000000000000000000000000BD
:1033100000000000000000000000000000000000AD
:103320000020707070707070FCFFFFFF0100F8FEED
:10333000FFFFFFFFFFFFFF00000000000000000094
:1033400000000001FFFFFFFC7070707070702000C3
:10335000000000000000000000000000000000006D
:10336000000000000000000000000000000000005D
:10337000000000000000000000000000000000004D
:10338000000000000000000000000000000000003D
:10339000000000000000000000000000000000002D
:1033A0000000000000000000010F3FFFFCF0C0879C
:1033B0000F1F3F3F7F7F7F000000000000000000E4
:1033C00080C0F0FCFF3F0F01000000000000000083
:1033D00000000000000000000000000000000000ED
:1033E00000000000000000000000000000000000DD
:1033F00000000000000000000000000000000000CD
:1034000000000000000000000000000000000000BC
:1034100000000000000000000000000000000000AC
:103420000000000000000010383C1E0F07030307D7
:10343000070F0E1E1C1CFCFCFCFC1C1C1E0E0F07A8
:10344000070303070F1E3C381000000000000000B7
:10345000000000000000000000000000000000006C
:10346000000000000000000000000000000000005C
:10347000000000000000000000000000000000004C
:10348000000000000000000000000000000000003C
:10349000000000000000000000000000000000002C
:1034A000000000000000000000000000000000001C
:1034B000000000000000070F0F07000000000000E0
:1034C00000000000000000000000000000000000FC
:1034D00000000000000000000000000000000000EC
:1034E00000000000000000000000000000000000DC
:1034F00000000000000000000000000000000000CC
:1035000000000000000000000000000000000000BB
:1035100000000000000000000000000000000000AB
:10352000000000000000000000000000000000009B
:10353000000000000000000000000000000000008B
:10354000000000000000000000000000000000007B
:10355000000000000000000000000000000000006B
:10356000000000000000000000000000000000005B
:1035700000000000000000000000FFFFFFFFFFFF51
:10358000FFFFFFFFFFFFFFFFFFFFFFFFFFFFFFFF4B
:10359000FFFFFFFFFFFFFFFFFFFFFFFFFFFFFFFF3B
:1035A000FFFFFFFFFFFFFFFFFFFFFFFFFFFFFFFF2B
:1035B000FFFFFFFFFFFFFFFFFFFF00000000000015
:1035C00000000000000000000000000000000000FB
:1035D00000000000000000000000000000000000EB
:1035E00000000000000000000000000000000000DB
:1035F00000000000000000000000FFFFFFFFFFFFD1
:10360000FFFFFFFFFFFFFFFFFFFFFFFFFFFFFFFFCA
:10361000FFFFFFFFFFFFFFFFFFFFFFFFFFFFFFFFBA
:10362000FFFFFFFFFFFFFFFFFFFFFFFFFFFFFFFFAA
:10363000FFFFFFFFFFFFFFFFFFFF00000000000094
:10364000000000000000000000000000000000007A
:10365000000000000000000000000000000000006A
:10366000000000000000000000000000000000005A
:1036700000000000000000000000FFFFFFFFFFFF50
:10368000FFFFFFFFFFFFFFFFFFFFFFFFFFFFFFFF4A
:10369000FFFFFFFFFFFFFFFFFFFFFF7F7F3F1F1FBA
:1036A0000F07030301FFFFFFFFFFFFFFFFFFFFFF08
:1036B000FFFFFFFFFFFFFFFFFFFF00000000000014
:1036C00000000000000000000000000000000000FA
:1036D00000FEFCFCF8F0F0E0C0C08000000000003C
:1036E00000000000000000000000000000000000DA
:1036F00000000000000000000000FFFFFFFFFFFFD0
:10370000FFFFFFFFFFFFFFFFFFFFFFFFFFFFFFFFC9
:103710007F3F3F1F0F0F0703010100000000000063
:10372000000000000001010101010101010101018E
:1037300001010101010101010101FEFEFEFEFEFE8B
:10374000FEFEFEFEFEFEFEFEFEFEFEFEFEFEFEFE99
:10375000FEFFFFFFFFFFFFFFFFFFFFFFFFFEFCFC81
:10376000F8F0F0E0C0C080000000000000000000A1
:1037700000000000000000000000FFFFFFFFFFFF4F
:10378000FFFFFFFFFFFFFFFFFFFFFFFFFFFFFEFC4D
:10379000F8F0F0E0C0C08000000000000000000071
:1037A0000000000000000000000000000000000019
:1037B00000000000000000000000FFFFFFFFFFFF0F
:1037C000FFFFFFFFFFFFFFFFFFFFFFFFFFFFFFFF09
:1037D000FFFFFFFFFFFFFFFFFFFFFFFFFFFFFFFFF9
:1037E0007F3F3F1F0F0F0703030000000000000092
:1037F00000000000000000000000FFFFFFFFFFFFCF
:10380000FFFFFFFFFFFFFFFFFFFFFFFFFFFFFFFFC8
:10381000FFFFFFFFFFFFFFFFFEFEFCF8F8F0E0E018
:10382000C080000000FEFEFEFEFEFEFEFEFEFEFE6E
:10383000FEFEFEFEFEFEFEFEFEFE01010101010196
:103840000101010101010101010101010101010168
:1038500001FFFFFF7F3F3F1F0F0F07030301000022
:103860000000000000000000000000000000000058
:1038700000000000000000000000FFFFFFFFFFFF4E
:10388000FFFFFFFFFFFFFFFFFFFFFFFFFFFFFFFF48
:10389000FFFFFFFFFFFFFFFFFFFFFFFFFFFFFFFF38
:1038A000FFFFFFFFFEFFFFFFFFFFFFFFFFFFFFFF29
:1038B000FFFFFFFFFFFFFFFFFFFF00000000000012
:1038C00000000000000000000000000000000000F8
:1038D00000010000000000000000000000000000E7
:1038E00000000000000000000000000000000000D8
:1038F00000000000000000000000FFFFFFFFFFFFCE
:10390000FFFFFFFFFFFFFFFFFFFFFFFFFFFFFFFFC7
:10391000FFFFFFFFFFFFFFFFFFFFFFFFFFFFFFFFB7
:10392000FFFFFFFFFFFFFFFFFFFFFFFFFFFFFFFFA7
:10393000FFFFFFFFFFFFFFFFFFFF00000000000091
:103940000000000000000000000000000000000077
:103950000000000000000000000000000000000067
:103960000000000000000000000000000000000057
:103970000000000000000000000000000000000047
:103DB0000000000000000000000000000200000001
:103DC0000200000006000000FE000000FE000000EF
:103DD000FE000000FE0000000E00000006000000D3
:103DE00002000000020000000000000000000000CF
:103DF00000000000000000000000000000000000C3
:103E000000000000000000000000000000000000B2
:103E100000000000000000000000000000000000A2
:103E20000000000000000000000000000000000092
:103E30000000000000000000000000000000000082
:103E40000000000000000000000000000000000072
:103E5000020000000200000006000000FE0000005A
:103E6000FE000000FE000000FE0000000600000052
:103E7000060000000600000006000000060000002A
:103E80000E0000003E000000FE000000FC000000EC
:103E9000F8000000F000000000000000000000003A
:103EA0000000000000000000000000000000000012
:103EB0000000000000000000000000000000000002
:103EC00000000000000000000000000000000000F2
:103ED00000000000000000000000000000000000E2
:103EE00000000000000000000000000000000000D2
:103EF00000000000000000000000000000000000C2
:103F000000000000000000000000000000000000B1
:103F100000000000000000000000000000000000A1
:103F20000000000000000000000000000000000091
:103F30000000000000000000000000000000000081
:103F40000000000000000000000000000000000071
:103F50000000000000000000000000000000000061
:103F60000000000000000000000000000000000051
:103F70000000000000000000000000000000000041
:103F80000000000000000000000000000000000031
:103F90000000000000000000000000000000000021
:103FA0000000000000000000000000000000000011
:103FB000000000000000000000000000FF00000002
:103FC000FF000000FF000000FF00000000000000F4
:103FD00000000000000000000000000000000000E1
:103FE00000000000000000000000000000000000D1
:103FF00000000000000000000000000000000000C1
:1040000000000000F0000000F8000000FE000000CA
:10401000FE00000007000000030000000300000095
:104020000100000003000000070000000F00000076
:10403000FE000000FE000000FC000000F000000098
:104040000000000000000000000000000000000070
:10405000FF000000FF000000FF000000FF00000064
:10406000100000001000000038000000F800000000
:10407000F8000000FC000000FF0000008F000000BE
:104080000F00000007000000010000000000000019
:104090000000000000000000000000000000000020
:1040A000000000001E0000009F0000009F000000B4
:1040B000C3000000C10000006100000063000000B8
:1040C000FF000000FF000000FE000000FC000000F8
:1040D00000000000000000000000000000000000E0
:1040E00000000000000000000000000000000000D0
:1040F00000000000000000000000000000000000C0
:1041000000000000000000000000000000000000AF
:10411000000000000000000000000000000000009F
:10412000000000000000000000000000000000008F
:10413000000000000000000000000000000000007F
:10414000000000000000000000000000000000006F
:10415000000000000000000000000000000000005F
:10416000000000000000000000000000000000004F
:10417000000000000000000000000000000000003F
:10418000000000000000000000000000000000002F
:10419000000000000000000000000000000000001F
:1041A000000000004000000040000000600000002F
:1041B0007F0000007F0000007F0000007F00000003
:1041C000700000006000000060000000600000005F
:1041D000600000006000000060000000600000005F
:1041E0006000000070000000780000003E00000049
:1041F0000600000000000000070000001F00000093
:104200003F0000003F0000007C0000007000000044
:10421000600000006000000060000000600000001E
:10422000700000003F0000003F0000000F00000091
:1042300003000000000000004000000040000000FB
:10424000600000007F0000007F0000007F00000091
:104250007F000000600000006000000040000000DF
:104260000000000001000000030000000F0000003B
:104270001F0000007F0000007E00000078000000AA
:10428000700000006000000060000000600000009E
:10429000400000003E0000007F0000007F000000A2
:1042A0007F0000007100000060000000700000004E
:1042B000300000003F0000007F0000007F00000091
:1042C0007F000000700000003000000000000000CF
:1042D00000000000000000000000000000000000DE
:1042E00000000000000000000000000000000000CE
:1042F00000000000000000000000000000000000BE
:1043000000000000000000000000000000000000AD
:104910000000000000000000000000003C4900080A
:104920000000002034000000940F000870490008C7
:104930003400002004040000A40F00086C8000076D
:1049400002090F808182838485868788898A8B8C7F
:104950008D8E8F00000000000000010203040102A0
:10496000030406070809020406080000000000000E
:0400000508000131BD
:00000001FF
