:020000040800F2
:1000000000040020CF010008B3030008AB03000880
:10001000AF0300088F020008A906000800000000D6
:10002000000000000000000000000000590500086A
:100030009302000800000000610400085B0500084E
:10004000EF010008EF010008EF010008EF010008D0
:10005000EF010008EF010008EF010008EF010008C0
:10006000EF010008EF010008EF010008EF010008B0
:10007000EF010008EF010008EF010008EF010008A0
:10008000EF010008EF010008EF010008EF01000890
:10009000EF010008EF010008EF010008EF01000880
:1000A000EF010008EF010008EF010008EF01000870
:1000B000EF010008EF010008EF010008EF01000860
:1000C000EF010008EF010008EF010008EF01000850
:1000D000EF010008EF010008EF010008EF01000840
:1000E000EF010008EF010008EF010008EF01000830
:1000F000EF010008EF010008EF010008EF01000820
:10010000EF010008EF010008EF010008EF0100080F
:10011000EF010008EF010008EF010008EF010008FF
:10012000EF010008EF010008EF010008EF010008EF
:1001300000F002F800F03AF80AA090E8000C8244BF
:100140008344AAF10107DA4501D100F02FF8AFF29C
:10015000090EBAE80F0013F0010F18BFFB1A43F0A5
:1001600001031847F005000010060000103A24BFF4
:1001700078C878C1FAD8520724BF30C830C144BF0C
:1001800004680C607047000000230024002500264E
:10019000103A28BF78C1FBD8520728BF30C148BFEA
:1001A0000B6070471FB51FBD10B510BD00F035F8CE
:1001B0001146FFF7F7FF00F079FA00F053F803B4A7
:1001C000FFF7F2FF03BC00F05BF8000070470B483C
:1001D00080470B4981F308880A480047FEE7FEE79D
:1001E000FEE7FEE7FEE7FEE7FEE7FEE7FEE7FEE7E7
:1001F00005480649044A064B70470000CD01000837
:1002000078080020310100087800002078080020DC
:1002100078000020704770477047754600F02CF852
:10022000AE4605006946534620F00700854618B0E3
:1002300020B5FFF7DDFFBDE820404FF000064FF08E
:1002400000074FF000084FF0000B21F00701AC460B
:10025000ACE8C009ACE8C009ACE8C009ACE8C0092A
:100260008D46704710B50446AFF300802046BDE8C8
:100270001040FFF7A4BF00000048704714000020A2
:1002800001491820ABBEFEE726000200704700BF00
:10029000FEE770472DE9F0410246002500260020C8
:1002A00000230024002791F803C00CF00F0591F8FB
:1002B00003C00CF0100CBCF1000F03D091F802C089
:1002C0004CEA050591F800C0BCF1000F31D014686C
:1002D00000202BE04FF0010C0CFA00F3B1F800C045
:1002E0000CEA03069E4220D183004FF00F0C0CFA5B
:1002F00003F7BC4305FA03FC4CEA040491F803C07D
:10030000BCF1280F06D14FF0010C0CFA00FCC2F82A
:1003100014C00AE091F803C0BCF1480F05D14FF0BA
:10032000010C0CFA00FCC2F810C0401C0828D1D304
:100330001460B1F800C0BCF1FF0F34DD5468002038
:100340002EE000F1080C4FF0010808FA0CF3B1F8A8
:1003500000C00CEA03069E4221D183004FF00F0C2F
:100360000CFA03F7BC4305FA03FC4CEA040491F8C9
:1003700003C0BCF1280F05D100F1080C08FA0CF8F5
:10038000C2F8148091F803C0BCF1480F07D100F106
:10039000080C4FF0010808FA0CF8C2F81080401C55
:1003A0000828CED35460BDE8F08100BFFEE700BF4F
:1003B000FEE7704708B54FF4C06000F047F825200D
:1003C0008DF8000000208DF801008DF8020001205A
:1003D0008DF80300684600F001F808BD70B50021F3
:1003E00000230F22C47804B3154C246804F4E0649D
:1003F000C4F5E064210AC1F10403CA40447804FA58
:1004000003F184781440214309010E4C0678A1556C
:10041000047804F01F050124AC4005786D11AD008F
:1004200005F1E025C5F8004109E0047804F01F0556
:100430000124AC40044D0678761145F8264070BD85
:100440000CED00E000E400E080E100E0024901433F
:10045000024A1160704700000000FA050CED00E050
:100460007047000029B1064A92690243044B9A6121
:1004700004E0034A92698243014B9A61704700008D
:100480000010024030B500210022002400232D4D31
:100490006D6805F00C0121B1042905D0082923D18C
:1004A00005E0294D056022E0274D05601FE0254D40
:1004B0006D6805F47012234D6D6805F480340225D3
:1004C00005EB92421CB9214D554305600BE01D4DD3
:1004D0006D6805F400351DB11C4D5543056002E003
:1004E000194D5543056002E0174D056000BF00BF80
:1004F000144D6D6805F0F0010909154D6B5C056838
:10050000DD4045600F4D6D6805F4E061090A104D4E
:100510006B5C4568DD4085600A4D6D6805F460518F
:10052000C90A0B4D6B5C4568DD40C560054D6D68C3
:1005300005F44041890B074D6B5CC568B5FBF3F5CD
:10054000056130BD0010024000127A0000093D0034
:1005500000000020100000207047704701F4007276
:10056000B2F5007F00D100BFCA430280704721B1BD
:10057000828942F40052828104E082894DF6FF7341
:100580001A4082817047F0B50346002400260025FA
:10059000002040F66A17B94200D100BF1846C1F3E7
:1005A000421401F01F06012707FA06F5012C01D1BC
:1005B0000C3004E0022C01D1103000E014301AB1EC
:1005C00007682F43076002E00768AF430760F0BD8C
:1005D0002DE9F04786B005460E460024A24600BF2E
:1005E000A1460027B08900B100BF2F462C8A4CF6E7
:1005F000FF700440F08804432C82AC894EF6F3105F
:100600000440B08831890843718908430443AC81B0
:10061000AC8A4FF6FF400440B0890443AC8201A885
:10062000FFF730FF1F48874202D1DDF810A001E03C
:10063000DDF80CA0A88900F4004040B10AEBCA0024
:1006400000EB0A1031684900B0FBF1F807E00AEB53
:10065000CA0000EB0A1031688900B0FBF1F8642091
:10066000B8FBF0F004012009642101FB1089A8897E
:1006700000F4004040B1322000EBC900B0FBF1F0C3
:1006800000F00700044308E0322000EB0910642169
:10069000B0FBF1F000F00F0004432C8106B0BDE880
:1006A000F08700000038014000BFFEE710B50121CF
:1006B00044F20500FFF7D6FE00F02EF800F00EF829
:1006C00040210548FFF74AFFFFF774FE0121024869
:1006D000FFF74DFF10BD0000003801401FB54FF47B
:1006E000E13000900020ADF80C000C20ADF80A00BD
:1006F0000020ADF80400ADF80800ADF8060069462A
:100700000448FFF765FF012240F225510148FFF739
:100710003AFF1FBD0038014008B54FF40070ADF836
:10072000000018208DF8030003208DF802006946B0
:100730000748FFF7AFFD4FF48060ADF800000420DC
:100740008DF8030069460248FFF7A4FD08BD0000CC
:100750000008014074070008000000201400000099
:100760006C010008880700081400002064080000DD
:1007700088010008000000000102030401020304D4
:0807800006070809020406083F
:04000005080001CF1F
:00000001FF
